:100000000C9462000C948A000C948A000C948A0070
:100010000C948A000C948A000C948A000C948A0038
:100020000C948A000C948A000C948A000C948A0028
:100030000C948A000C948A000C948A000C948A0018
:100040000C9451030C948A000C941F030C94F90235
:100050000C948A000C948A000C948A000C948A00F8
:100060000C948A000C948A000000000024002700F1
:100070002A0000000000250028002B0000000000DE
:1000800023002600290004040404040404040202DA
:100090000202020203030303030301020408102007
:1000A0004080010204081020010204081020000012
:1000B0000008000201000003040700000000000027
:1000C00000009B0311241FBECFEFD8E0DEBFCDBFE1
:1000D00022E0A8E3B1E001C01D92AA32B207E1F725
:1000E00011E0A0E0B1E0ECEAFCE002C005900D9266
:1000F000A833B107D9F710E0C2E6D0E004C02197D9
:10010000FE010E944906C136D107C9F70E94DA03F1
:100110000C9454060C940000CF92DF92EF92FF9261
:100120000F931F93CF93DF936C017A018B01C0E093
:10013000D0E0CE15DF0581F0D8016D918D01D6019B
:10014000ED91FC910190F081E02DC6010995892B7C
:1001500011F02196EECF7E01C701DF91CF911F9163
:100160000F91FF90EF90DF90CF900895089580E079
:1001700090E00895FC01538D448D252F30E0842FAD
:1001800090E0821B930B541710F0CF9608950197BF
:100190000895FC01918D828D981761F0828DDF01A9
:1001A000A80FB11D5D968C91928D9F5F9F73928F6A
:1001B00090E008958FEF9FEF0895FC01918D828D5F
:1001C000981731F0828DE80FF11D858D90E008952C
:1001D0008FEF9FEF0895FC01918D228D892F90E084
:1001E000805C9F4F821B91098F739927089585E446
:1001F00091E00E94EB0021E0892B09F420E0822F9E
:100200000895FC01848DDF01A80FB11DA35ABF4FD3
:100210002C91848D90E001968F739927848FA68905
:10022000B7892C93A089B1898C91837080648C9359
:10023000938D848D981306C00288F389E02D808108
:100240008F7D80830895EF92FF920F931F93CF933A
:10025000DF93EC0181E0888F9B8D8C8D981305C016
:10026000E889F989808185FD26C0F62E0B8D10E086
:100270000F5F1F4F0F731127E02E8C8DE8120CC0FB
:100280000FB607FCFACFE889F989808185FFF5CFA1
:10029000CE010E940101F1CF8B8DFE01E80FF11D0F
:1002A000E35AFF4FF0829FB7F8940B8FEA89FB89DE
:1002B000808180620AC09FB7F894EE89FF896083CD
:1002C000E889F98980818370806480839FBF81E0A1
:1002D00090E0DF91CF911F910F91FF90EF900895E3
:1002E000CF93DF93EC01888D8823C9F0EA89FB89DD
:1002F000808185FD05C0A889B9898C9186FD0FC0D4
:100300000FB607FCF5CF808185FFF2CFA889B989A8
:100310008C9185FFEDCFCE010E940101E7CFDF91E7
:10032000CF91089580E090E0892B29F00E94F7009A
:1003300081110C9400000895833081F028F48130FD
:1003400099F08230A1F008958730A9F08830B9F093
:100350008430D1F4809180008F7D03C08091800033
:100360008F7780938000089584B58F7702C084B51D
:100370008F7D84BD08958091B0008F7703C08091F8
:10038000B0008F7D8093B00008951F93CF93DF93CB
:10039000282F30E0F901E255FF4F8491F901E6562C
:1003A000FF4FD491F901EA57FF4FC491CC23C1F01C
:1003B000162F81110E949C01EC2FF0E0EE0FFF1F21
:1003C000EE58FF4FA591B4919FB7F894111104C056
:1003D0008C91D095D82302C0EC91DE2BDC939FBF8B
:1003E000DF91CF911F910895CF93DF9390E0FC01AF
:1003F000E656FF4F2491FC01EA57FF4F8491882372
:1004000061F190E0880F991FFC01E859FF4FC591F9
:10041000D491FC01EE58FF4FA591B491611109C030
:100420009FB7F8948881209582238883EC912E23AE
:100430000BC0623061F49FB7F8948881322F3095F9
:1004400083238883EC912E2B2C939FBF06C08FB7FC
:10045000F894E8812E2B28838FBFDF91CF910895E8
:100460003FB7F89480913D0190913E01A0913F01EA
:10047000B091400126B5A89B05C02F3F19F0019609
:10048000A11DB11D3FBFBA2FA92F982F8827820F1A
:10049000911DA11DB11DBC01CD0142E0660F771F6A
:1004A000881F991F4A95D1F708958F929F92AF9216
:1004B000BF92CF92DF92EF92FF920E9430024B01E7
:1004C0005C0188EEC82E83E0D82EE12CF12C0E942E
:1004D0003002DC01CB0188199909AA09BB09883EC1
:1004E0009340A105B10598F321E0C21AD108E108B3
:1004F000F10888EE880E83E0981EA11CB11CC1147F
:10050000D104E104F10419F7FF90EF90DF90CF9050
:10051000BF90AF909F908F9008952FB7F8946091FF
:10052000390170913A0180913B0190913C012FBFBC
:1005300008956115710579F0FB0101900020E9F73C
:100540003197AF01461B570BDC01ED91FC91028006
:10055000F381E02D099480E090E008958F929F92BE
:10056000AF92BF92EF92FF920F931F93CF93DF93BF
:10057000CDB7DEB7A1970FB6F894DEBF0FBECDBFE3
:100580007C01FA01CB0119A2223008F42AE08E0185
:100590000F5D1F4F822E912CA12CB12CBF01A50104
:1005A00094010E942706F901CA01015011096A301D
:1005B00014F4605D01C0695CD8016C93232B242B7B
:1005C000252B61F7B801C7010E949902A1960FB6C9
:1005D000F894DEBF0FBECDBFDF91CF911F910F9179
:1005E000FF90EF90BF90AF909F908F9008950E94E2
:1005F0004F061F920F920FB60F9211242F933F9325
:100600004F935F936F937F938F939F93AF93BF931A
:10061000EF93FF9385E491E00E940101FF91EF9138
:10062000BF91AF919F918F917F916F915F914F910A
:100630003F912F910F900FBE0F901F9018951F9212
:100640000F920FB60F9211242F938F939F93EF93D6
:10065000FF93E0915501F09156018081E0915B019B
:10066000F0915C0182FD12C0908180915E018F5FEC
:100670008F7320915F01821751F0E0915E01F0E0ED
:10068000EB5BFE4F958F80935E0101C08081FF91EF
:10069000EF919F918F912F910F900FBE0F901F9010
:1006A00018951F920F920FB60F9211242F933F931C
:1006B0008F939F93AF93BF938091390190913A01AB
:1006C000A0913B01B0913C013091380123E0230F10
:1006D0002D3720F40196A11DB11D05C026E8230F7A
:1006E0000296A11DB11D209338018093390190938A
:1006F0003A01A0933B01B0933C0180913D01909160
:100700003E01A0913F01B09140010196A11DB11D94
:1007100080933D0190933E01A0933F01B09340012F
:10072000BF91AF919F918F913F912F910F900FBEED
:100730000F901F901895E5E4F1E01382128288EE85
:1007400093E0A0E0B0E084839583A683B78384E040
:1007500091E09183808385EC90E09587848784EC99
:1007600090E09787868780EC90E0918B808B81EC7E
:1007700090E0938B828B82EC90E0958B848B86EC5F
:1007800090E0978B868B118E128E138E148EE2EE74
:10079000F1E016821782108611861286138614865F
:1007A000158616861786108A118A128A138A148A69
:1007B000158A0895789484B5826084BD84B581607B
:1007C00084BD85B5826085BD85B5816085BD80911C
:1007D0006E00816080936E00109281008091810094
:1007E000826080938100809181008160809381008C
:1007F000809180008160809380008091B10084604E
:100800008093B1008091B00081608093B0008091AE
:100810007A00846080937A0080917A00826080936D
:100820007A0080917A00816080937A0080917A00CA
:10083000806880937A001092C10010922602109274
:10084000270210922802109229021092E4011092BD
:10085000E5011092E6011092E7010E948D026B0102
:100860007C014B015C0188EB880E8BE0981EA11C7B
:10087000B11C0E948D026C157D058E059F0528F028
:1008800086169706A806B906A0F785E491E090932E
:10089000250280932402E0915501F091560182E0F7
:1008A0008083E0915101F09152011082E091530157
:1008B000F091540180E1808310925D01E091590133
:1008C000F0915A0186E08083E0915701F091580140
:1008D000808180618083E0915701F091580180818F
:1008E00088608083E0915701F09158018081806891
:1008F0008083E0915701F091580180818F7D808342
:100900000E948D026093E4017093E5018093E601FB
:100910009093E70162E171E08091240290912502B9
:100920000E9499020E948D026B017C014B015C01C7
:10093000EAE08E0E911CA11CB11C0E948D026C1568
:100940007D058E059F0528F086169706A806B90630
:10095000A0F781E08093F80161E083E00E94F40158
:1009600061E084E00E94F40161E085E00E94F4010E
:1009700060E082E00E94F4010E948D02672B682BE8
:10098000692B41F40E948D02623071058105910549
:1009900008F413C10E948D0200914101109142019F
:1009A000209143013091440160177107820793073A
:1009B00040F460934101709342018093430190930E
:1009C0004401009141011091420120914301309175
:1009D00044016B017C01C01AD10AE20AF30A9701B3
:1009E00086010A3F11052105310508F4E6C0609330
:1009F000410170934201809343019093440184EF3D
:100A000091E0A0E0B0E08093F0019093F101A09319
:100A1000F201B093F3011092F4011092F5011092DB
:100A2000F6011092F7018091E8019091E901A091FF
:100A3000EA01B091EB018093EC019093ED01A0935A
:100A4000EE01B093EF010E948D026093E801709374
:100A5000E9018093EA019093EB010E948D0260937B
:100A6000E4017093E5018093E6019093E7010E9411
:100A70008D026B017C0164E271E08091240290910F
:100A800025020E9499022AE041E050E060E070E017
:100A900080912402909125020E94AE026BE271E0E7
:100AA00080912402909125020E9499022AE0B701C8
:100AB000A60180912402909125020E94AE026DE26F
:100AC00071E080912402909125020E949902809108
:100AD000E8019091E901A091EA01B091EB01B70121
:100AE000A601481B590B6A0B7B0B2AE0809124025C
:100AF000909125020E94AE026DE271E08091240285
:100B0000909125020E9499024091E8015091E901DB
:100B10006091EA017091EB018091EC019091ED01FF
:100B2000A091EE01B091EF01481B590B6A0B7B0BB2
:100B30002AE080912402909125020E94AE026FE289
:100B400071E080912402909125020E9499020E94F6
:100B50008D02AB01BC012AE0809124029091250214
:100B60000E94AE02C0912402D091250261E371E09F
:100B7000CE010E94990261E271E0CE010E949902C9
:100B80000E948D026B017C014B015C0182E0880EAA
:100B9000911CA11CB11C0E948D026C157D058E0557
:100BA0009F0508F04DC00E948D026093E80170938C
:100BB000E9018093EA019093EB01C0EBD0E00CE9EE
:100BC00010E098E8E92E90E0F92EFE018491F801FA
:100BD000C490F701D490DD20C1F381110E949C01E3
:100BE000ED2DF0E0EE0FFF1FE458FF4FA591B491FB
:100BF0008C918C2151F361E085E00E94C5010E9437
:100C0000550260E085E00E94C5010E94550261E046
:100C100084E00E94C5010E94550260E084E00E94C9
:100C2000C5010E94550261E083E00E94C5010E9457
:100C3000550260E083E00E94C5010E945502C5CFC5
:100C400086169706A806B90608F0A5CFACCFA1E294
:100C50001A2EAA1BBB1BFD010DC0AA1FBB1FEE1F36
:100C6000FF1FA217B307E407F50720F0A21BB30B81
:100C7000E40BF50B661F771F881F991F1A9469F7FD
:100C800060957095809590959B01AC01BD01CF0159
:100C90000895EE0FFF1F0590F491E02D099481E077
:0C0CA00090E0F8940C945406F894FFCFF8
:100CAC000000000023018C00BA007001EB00C900A9
:100CBC00DD00564D4450565F317C315F564D4450EB
:100CCC00560D0A00564D4450455F003A323A007CAE
:080CDC00005F564D4450450035
:00000001FF
