:100000000C9462000C948A000C948A000C948A0070
:100010000C948A000C948A000C948A000C948A0038
:100020000C948A000C948A000C948A000C948A0028
:100030000C948A000C948A000C948A000C948A0018
:100040000C9411040C948A000C94DF030C94B903F3
:100050000C948A000C948A000C948A000C948A00F8
:100060000C948A000C948A000000000025002800EF
:100070002B0000000000240027002A0000000000E0
:1000800023002600290004040404040404040202DA
:100090000202020203030303030301020408102007
:1000A0004080010204081020010204081020000012
:1000B0000008000201000003040700000000000027
:1000C00000005B0411241FBECFEFD8E0DEBFCDBF20
:1000D00022E0A2EBB1E001C01D92A53AB207E1F720
:1000E00011E0A0E0B1E0EEEAF4E102C005900D926B
:1000F000A23BB107D9F710E0C2E6D0E004C02197D7
:10010000FE010E944A0AC136D107C9F70E949A042B
:100110000C94550A0C940000E0ECF1E0A089B18940
:1001200082E08C93A485B5851C92A685B7858FEC5B
:100130008C93108EA489B58986E08C93A289B389AB
:100140008C9180618C93A289B3898C9188608C9307
:10015000A289B3898C9180688C930288F389E02D01
:1001600080818F7D80830895CF92DF92EF92FF92FE
:100170000F931F93CF93DF936C017A018B01C0E043
:10018000D0E0CE15DF0581F0D8016D918D01D6014B
:10019000ED91FC910190F081E02DC6010995892B2C
:1001A00011F02196EECF7E01C701DF91CF911F9113
:1001B0000F91FF90EF90DF90CF900895089580E029
:1001C00090E00895FC01538D448D252F30E0842F5D
:1001D00090E0821B930B541710F0CF96089501976F
:1001E0000895FC01918D828D981761F0828DDF0159
:1001F000A80FB11D5D968C91928D9F5F9F73928F1A
:1002000090E008958FEF9FEF0895FC01918D828D0E
:10021000981731F0828DE80FF11D858D90E00895DB
:100220008FEF9FEF0895FC01918D228D892F90E033
:10023000805C9F4F821B91098F739927089580ECF2
:1002400091E00E94130121E0892B09F420E0822F24
:100250000895FC01848DDF01A80FB11DA35ABF4F83
:100260002C91848D90E001968F739927848FA689B5
:10027000B7892C93A089B1898C91837080648C9309
:10028000938D848D981306C00288F389E02D8081B8
:100290008F7D80830895EF92FF920F931F93CF93EA
:1002A000DF93EC0181E0888F9B8D8C8D981305C0C6
:1002B000E889F989808185FD26C0F62E0B8D10E036
:1002C0000F5F1F4F0F731127E02E8C8DE8120CC0AB
:1002D0000FB607FCFACFE889F989808185FFF5CF51
:1002E000CE010E942901F1CF8B8DFE01E80FF11D97
:1002F000E35AFF4FF0829FB7F8940B8FEA89FB898E
:10030000808180620AC09FB7F894EE89FF8960837C
:10031000E889F98980818370806480839FBF81E050
:1003200090E0DF91CF911F910F91FF90EF90089592
:10033000CF93DF93EC01888D8823C9F0EA89FB898C
:10034000808185FD05C0A889B9898C9186FD0FC083
:100350000FB607FCF5CF808185FFF2CFA889B98958
:100360008C9185FFEDCFCE010E942901E7CFDF916F
:10037000CF91089580E090E0892B29F00E941F0121
:1003800081110C9400000895833081F028F48130AD
:1003900099F08230A1F008958730A9F08830B9F043
:1003A0008430D1F4809180008F7D03C080918000E3
:1003B0008F7780938000089584B58F7702C084B5CD
:1003C0008F7D84BD08958091B0008F7703C08091A8
:1003D000B0008F7D8093B00008951F93CF93DF937B
:1003E000282F30E0F901E255FF4F8491F901E656DC
:1003F000FF4FD491F901EA57FF4FC491CC23C1F0CC
:10040000162F81110E94C401EC2FF0E0EE0FFF1FA8
:10041000E859FF4FA591B4919FB7F894111104C00A
:100420008C91D095D82302C0EC91DE2BDC939FBF3A
:10043000DF91CF911F9108952FB7F8946091B70184
:100440007091B8018091B9019091BA012FBF0895C0
:100450000E94500A6115710579F0FB01019000209E
:10046000E9F73197AF01461B570BDC01ED91FC9189
:100470000280F381E02D099480E090E008958F924E
:100480009F92AF92BF92EF92FF920F931F93CF93E1
:10049000DF93CDB7DEB7A1970FB6F894DEBF0FBEDE
:1004A000CDBF7C01FA01CB0119A2223008F42AE069
:1004B0008E010F5D1F4F822E912CA12CB12CBF01FC
:1004C000A50194010E941009F901CA010150110906
:1004D0006A3014F4605D01C0695CD8016C93232B11
:1004E000242B252B61F7B801C7010E942A02A1968F
:1004F0000FB6F894DEBF0FBECDBFDF91CF911F9135
:100500000F91FF90EF90BF90AF909F908F900895C4
:100510008F929F92AF92BF92CF92DF92EF92FF9213
:100520000F931F93CF93DF936B017C01142F9B01DB
:10053000AC010E94450A882319F062E171E027C0EE
:1005400046015701E894B7F82FEF3FEF4FE75FE719
:10055000C501B4010E94450A81110DC02FEF3FEF84
:100560004FE75FE7C501B4010E94EC0718161CF4C1
:1005700066E171E00CC02FEF3FEF4FE75FE4C7018A
:10058000B6010E94400A181694F46AE171E080EC0A
:1005900091E0DF91CF911F910F91FF90EF90DF904D
:1005A000CF90BF90AF909F908F900C942A022FEF26
:1005B0003FEF4FE75FECC701B6010E94EC0787FDF4
:1005C000E4CF20E030E0A901C701B6010E94EC07AA
:1005D00087FF0BC06DE280EC91E00E944B01EC01C3
:1005E000F7FAF094F7F8F09402C0C0E0D0E000E031
:1005F00060E070E080E09FE3101741F020E030E021
:1006000040E251E40E949F090F5FF6CFA7019601D7
:100610000E9433096B017C010E94110A4B015C01AD
:100620002AE0AB01BC0180EC91E00E943F02C80FC0
:10063000D91F1123C9F1C501B4010E94F1079B0123
:10064000AC01C701B6010E9432096B017C016EE268
:1006500080EC91E00E944B01C80FD91F20E030E0F0
:1006600040E251E4C701B6010E9452084B015C010F
:100670000E94110A6B01E12CF12C2AE0B701A601BE
:1006800080EC91E00E943F02C80FD91FC701B6015C
:100690000E94F1079B01AC01C501B4010E9432091F
:1006A0006B017C011150D1F6CE01DF91CF911F91EA
:1006B0000F91FF90EF90DF90CF90BF90AF909F9001
:1006C0008F900895CF92DF92EF92FF92CF93DF93B6
:1006D0006B017C016DE280EC91E00E944B01EC012A
:1006E00044275527BA014C195D096E097F092AE094
:1006F00080EC91E00E943F028C0F9D1FDF91CF9113
:10070000FF90EF90DF90CF900895CF93DF93AC01EF
:10071000990F660B770B77FF05C0CB01BA010E94DA
:10072000620305C02AE080EC91E00E943F02EC01E8
:100730006DE271E080EC91E00E942A028C0F9D1F17
:10074000DF91CF9108950F931F93CF93DF93EC0127
:100750000E942A028C016DE271E0CE010E942A0201
:10076000800F911FDF91CF911F910F9108950C94ED
:100770002A021F920F920FB60F9211242F933F93CC
:100780004F935F936F937F938F939F93AF93BF9399
:10079000EF93FF9380EC91E00E942901FF91EF918C
:1007A000BF91AF919F918F917F916F915F914F9189
:1007B0003F912F910F900FBE0F901F9018951F9291
:1007C0000F920FB60F9211242F938F939F93EF9355
:1007D000FF93E091D001F091D1018081E091D601A9
:1007E000F091D70182FD12C090818091D9018F5F75
:1007F0008F732091DA01821751F0E091D901F0E076
:10080000E054FE4F958F8093D90101C08081FF9104
:10081000EF919F918F912F910F900FBE0F901F908E
:1008200018951F920F920FB60F9211242F933F939A
:100830008F939F93AF93BF938091B7019091B8012D
:10084000A091B901B091BA013091B60123E0230F14
:100850002D3720F40196A11DB11D05C026E8230FF8
:100860000296A11DB11D2093B6018093B70190930C
:10087000B801A093B901B093BA018091B2019091EF
:10088000B301A091B401B091B5010196A11DB11DB4
:100890008093B2019093B301A093B401B093B501DA
:1008A000BF91AF919F918F913F912F910F900FBE6C
:1008B0000F901F901895E0ECF1E01382128288EE01
:1008C00093E0A0E0B0E084839583A683B78384E0BF
:1008D00091E09183808385EC90E09587848784EC18
:1008E00090E09787868780EC90E0918B808B81ECFD
:1008F00090E0938B828B82EC90E0958B848B86ECDE
:1009000090E0978B868B118E128E138E148EEDE5F0
:10091000F2E01682178210861186128613861486DC
:10092000158616861786108A118A128A138A148AE7
:10093000158A0895789484B5826084BD84B58160F9
:1009400084BD85B5826085BD85B5816085BD80919A
:100950006E00816080936E00109281008091810012
:10096000826080938100809181008160809381000A
:10097000809180008160809380008091B1008460CC
:100980008093B1008091B00081608093B00080912D
:100990007A00846080937A0080917A0082608093EC
:1009A0007A0080917A00816080937A0080917A0049
:1009B000806880937A001092C1001092A102109278
:1009C000A2021092A3021092A40210925F0210924F
:1009D000600210926102109262020E941C026B017E
:1009E0007C014B015C0128EB820E2BE0921EA11CC6
:1009F000B11C0E941C026C157D058E059F0528F018
:100A000086169706A806B906A0F780EC91E09093A9
:100A1000A00280939F020E948C000E941C0260939F
:100A20005F027093600280936102909362026EE1B4
:100A300071E080919F029091A0020E94B7030E94F2
:100A40001C026B017C014B015C013AE0830E911C9E
:100A5000A11CB11C0E941C026C157D058E059F0512
:100A600028F086169706A806B906A0F781E08093BD
:100A7000730203EA10E0F8012491CFE8D0E0FE0110
:100A800084918823C9F090E0880F991FFC01EE58EB
:100A9000FF4FA591B491FC01E859FF4F4591549146
:100AA0003FB7F8949C91822F809598239C93FA01EC
:100AB0009081892380833FBF0E948C0062E0E62EF4
:100AC000F12C8E2DF701E656FF4F4491F701EA57BE
:100AD000FF4F2491222399F030E0220F331FF901B8
:100AE000EE58FF4FA591B491F901E859FF4F2591B8
:100AF00034919FB7F894EC91E42BEC939FBF60E0A6
:100B00000E94ED01FFEFEF1AFF0A26E0E216F10462
:100B1000C1F624EF422E55245394612C712C37EBEF
:100B2000232E30E0332E0E941C02672B682B692B8A
:100B300041F40E941C02623071058105910508F4A0
:100B400009C10E941C02C090BC01D090BD01E09080
:100B5000BE01F090BF016C157D058E059F0540F428
:100B60006093BC017093BD018093BE019093BF015F
:100B7000C090BC01D090BD01E090BE01F090BF01DB
:100B80009B01AC012C193D094E095F0969017A01ED
:100B90003AEFC316D104E104F10408F4DBC060931A
:100BA000BC017093BD018093BE019093BF01409240
:100BB0006B0250926C0260926D0270926E02109203
:100BC0006F02109270021092710210927202809164
:100BD000630290916402A0916502B09166028093D5
:100BE000670290936802A0936902B0936A020E9420
:100BF0001C02609363027093640280936502909379
:100C000066020E941C0260935F02709360028093F0
:100C10006102909362020E941C026B017C0160E3FE
:100C200071E080919F029091A0020E94B7032AE098
:100C300041E050E060E070E080919F029091A0025E
:100C40000E943F0267E371E080919F029091A002B1
:100C50000E94B7032AE0B701A60180919F029091FC
:100C6000A0020E943F0269E371E080919F0290918F
:100C7000A0020E94B7038091630290916402A09148
:100C80006502B0916602B701A601481B590B6A0BB9
:100C90007B0B2AE080919F029091A0020E943F026C
:100CA00069E371E080919F029091A0020E94B703D6
:100CB00040916302509164026091650270916602F6
:100CC0008091670290916802A0916902B0916A02D6
:100CD000481B590B6A0B7B0B2AE080919F02909175
:100CE000A0020E943F026BE371E080919F0290910D
:100CF000A0020E94B7030E941C02AB01BC012AE0C3
:100D000080919F029091A0020E943F026DE371E0EA
:100D100080919F029091A0020E94A3030E941C0256
:100D20006B017C014B015C0142E0840E911CA11C13
:100D3000B11C0E941C026C157D058E059F0508F5EF
:100D40000E941C02609363027093640280936502A8
:100D500090936602F1018491F801F490FE01E49011
:100D6000EE20A9F081110E94C401EE2DF0E0EE0FFB
:100D7000FF1FE458FF4FA591B4918C91F82239F0F0
:100D80001DC186169706A806B90698F6D9CFE12C9C
:100D9000F12C64E471E080EC91E00E94B703C7019C
:100DA0000E94850368E571E080EC91E00E94B70342
:100DB0008091BB0190E00E9485038091BB01882354
:100DC00009F4E1C020E420937C0080917A008064E3
:100DD00080937A0080917A0086FDFCCFE0907800C5
:100DE00080917900F12CF82A66E671E080EC91E0C0
:100DF0000E94B70347010F2C000CAA08BB08F7FE9E
:100E000005C0C501B4010E94620307C02AE0B50114
:100E1000A40180EC91E00E943F02C501B4010E9450
:100E2000F30720E030E040E85AE30E94520820E057
:100E300030E040EA50E40E9452086B017C0165E713
:100E400071E080EC91E00E94B70342E0C701B60177
:100E50000E94880220E030E040E05FE3C701B60175
:100E60000E94320920E030E048EC52E40E9452082F
:100E70006B017C0160E871E080EC91E00E94B703B7
:100E800042E0C701B6010E9488026FE871E080EC81
:100E900091E00E94B70320E030E040E151E4C70157
:100EA000B6010E94520820E030E040EA50E40E947F
:100EB0009F0920E030E040E052E40E94330942E024
:100EC0000E9488026DE271E080EC91E00E942A02AB
:100ED00020E030E048EC51E4C701B6010E94EC0785
:100EE00087FF02C060E015C020E030E048ED51E42B
:100EF000C701B6010E94400A87FD10C020E030E023
:100F000048EE51E4C701B6010E94EC0787FF06C016
:100F100061E082E00E94ED0160E019C020E030E075
:100F200048EE51E4C701B6010E94400A87FD14C093
:100F300020E030E048EF51E4C701B6010E94EC0721
:100F400087FF0AC061E082E00E94ED0161E083E07A
:100F50000E94ED0160E013C020E030E048EF51E472
:100F6000C701B6010E94400A87FD13C061E082E01C
:100F70000E94ED0161E083E00E94ED0161E084E008
:100F80000E94ED0106C06EE971E080EC91E00E94E4
:100F9000A3036FE271E080EC91E00E94A3036FE293
:100FA00071E080EC91E00E94A3036FE271E080ECBD
:100FB00091E00E94A3030E94BA01B5CD8091BB01CC
:100FC000882319F01092BB0103C0F1E0F093BB013C
:100FD000EE24E394F12CDDCE0E942E0808F481E08B
:100FE0000895E89409C097FB3EF49095809570951C
:100FF00061957F4F8F4F9F4F9923A9F0F92F96E965
:10100000BB279395F695879577956795B795F111D9
:10101000F8CFFAF4BB0F11F460FF1BC06F5F7F4F76
:101020008F4F9F4F16C0882311F096E911C0772388
:1010300021F09EE8872F762F05C0662371F096E891
:10104000862F70E060E02AF09A95660F771F881F60
:10105000DAF7880F9695879597F90895990F000804
:10106000550FAA0BE0E8FEEF16161706E807F9077A
:10107000C0F012161306E407F50798F0621B730B15
:10108000840B950B39F40A2661F0232B242B252B96
:1010900021F408950A2609F4A140A6958FEF811D39
:1010A000811D08950E9465080C94D6080E94C80806
:1010B00038F00E94CF0820F0952311F00C94BF085F
:1010C0000C94C50811240C940A090E94E70870F3D7
:1010D000959FC1F3950F50E0551F629FF001729FDD
:1010E000BB27F00DB11D639FAA27F00DB11DAA1FEC
:1010F000649F6627B00DA11D661F829F2227B00D39
:10110000A11D621F739FB00DA11D621F839FA00DC3
:10111000611D221F749F3327A00D611D231F849F13
:10112000600D211D822F762F6A2F11249F5750406A
:101130009AF0F1F088234AF0EE0FFF1FBB1F661FE5
:10114000771F881F91505040A9F79E3F510580F0AE
:101150000C94BF080C940A095F3FE4F3983ED4F363
:10116000869577956795B795F795E7959F5FC1F752
:10117000FE2B880F911D9695879597F9089597F9FD
:101180009F6780E870E060E008959FEF80EC08952D
:1011900000240A9416161706180609060895002456
:1011A0000A9412161306140605060895092E0394D0
:1011B000000C11F4882352F0BB0F40F4BF2B11F444
:1011C00060FF04C06F5F7F4F8F4F9F4F089557FDA3
:1011D0009058440F551F59F05F3F71F04795880FA5
:1011E00097FB991F61F09F3F79F08795089512163C
:1011F00013061406551FF2CF4695F1DF08C01616E8
:1012000017061806991FF1CF869571056105089498
:101210000895E894BB2766277727CB0197F90895AF
:10122000A1E21A2EAA1BBB1BFD010DC0AA1FBB1FEA
:10123000EE1FFF1FA217B307E407F50720F0A21B5C
:10124000B30BE40BF50B661F771F881F991F1A94C9
:1012500069F760957095809590959B01AC01BD01F3
:10126000CF0108955058BB27AA270E944A090C9421
:10127000D6080E94C80838F00E94CF0820F039F440
:101280009F3F19F426F40C94C5080EF4E095E7FB93
:101290000C94BF08E92F0E94E70858F3BA176207B9
:1012A00073078407950720F079F4A6F50C940909D3
:1012B0000EF4E0950B2EBA2FA02D0B01B901900171
:1012C0000C01CA01A0011124FF27591B99F0593FB5
:1012D00050F4503E68F11A16F040A22F232F342FFD
:1012E0004427585FF3CF469537952795A795F0404B
:1012F0005395C9F77EF41F16BA0B620B730B840B60
:10130000BAF09150A1F0FF0FBB1F661F771F881F17
:10131000C2F70EC0BA0F621F731F841F48F487956F
:1013200077956795B795F7959E3F08F0B0CF939561
:10133000880F08F09927EE0F9795879508950E94DA
:10134000B3090C94D6080E94CF0858F00E94C80830
:1013500040F029F45F3F29F00C94BF0851110C9420
:101360000A090C94C5080E94E70868F39923B1F3B1
:10137000552391F3951B550BBB27AA2762177307BB
:10138000840738F09F5F5F4F220F331F441FAA1F4F
:10139000A9F335D00E2E3AF0E0E832D0915050400B
:1013A000E695001CCAF72BD0FE2F29D0660F771FB9
:1013B000881FBB1F261737074807AB07B0E809F09F
:1013C000BB0B802DBF01FF2793585F4F3AF09E3F24
:1013D000510578F00C94BF080C940A095F3FE4F3C0
:1013E000983ED4F3869577956795B795F7959F5F67
:1013F000C9F7880F911D9695879597F90895E1E0B3
:10140000660F771F881FBB1F621773078407BA0711
:1014100020F0621B730B840BBA0BEE1F88F7E0956C
:1014200008950E94EF0888F09F5798F0B92F9927E8
:10143000B751B0F0E1F0660F771F881F991F1AF0BF
:10144000BA95C9F714C0B13091F00E940909B1E012
:1014500008950C940909672F782F8827B85F39F011
:10146000B93FCCF3869577956795B395D9F73EF458
:1014700090958095709561957F4F8F4F9F4F089500
:101480000E942E0808F48FEF08950E942E08880B02
:10149000990B0895EE0FFF1F0590F491E02D09942C
:0E14A00081E090E0F8940C94550AF894FFCF88
:1014AE00000000004B01B400E20098011301F100AE
:1014BE0005016E616E00696E66006F766600564DB0
:1014CE004450565F317C315F564D4450560D0A00E4
:1014DE00564D4450455F003A323A007C005F564DFF
:1014EE0044504500506F7765725377697463682076
:1014FE0076616C75653A2000506F77657220766163
:10150E006C75653A200053656E736F722056616C70
:10151E0075653A2000202C20566F6C74733A2000AB
:10152E00202C206465677265657320433A20002085
:10153E002C206465677265657320463A20005468F6
:10154E00652064657669636520697320226F66661F
:02155E00220069
:00000001FF
